S01E0000476F6C64436170414443566572696669636174696F6E2E73726563C1
S113000010C017C016C015C014C013C012C011C050
S113001010C00FC00EC00DC00CC00BC00AC009C078
S113002008C011271FBFCFEBD0E0DEBFCDBF45D046
S113003081C0E6CF8117910771F040E050E069EF8D
S113004070E061507040E9F700C000004F5F5F4FFF
S113005048175907A1F7089542B3476842BB08956A
S113006040B38770842B80BB969A9699FECF8EB14D
S11300709FB1089541E08117910709F440E0873961
S1130080910708F042608D3251E0950708F0446012
S1130090833C51E0950708F04860893552E09507A4
S11300A008F040618F3E52E0950708F040628538C1
S11300B0934008F04064842F0895CF93DF9300D0D9
S11300C01F93CDB7DEB711B941B14F6741B941B103
S11300D041B92A9AC1DF4FE7CF5FDF4F4883C15050
S11300E0D04030E087E0BCDFCD5FDF4F98838A9358
S11300F0C250D040BFDFCF5FDF4F8883C150D040B4
S113010042B1407842B9CF5FDF4F5881C150D040EF
S113011042B1452B42B9332311F0329A01C03298CF
S113012041E03427CE5FDF4F89919881C350D0409E
S10B013081DFD8CFF894FFCF62
S9030000FC
