:100000000C943E000C9448000C9448000C9448005A
:100010000C9448000C9448000C9448000C94480040
:100020000C9448000C9448000C9448000C94480030
:100030000C9448000C9448000C9448000C94480020
:100040000C9448000C9448000C9448000C94480010
:100050000C9448000C9448000C9448000C94480000
:100060000C9448000C9448000C9448000C944800F0
:100070000C9448000C9448000C94480011241FBEB6
:10008000CFEFCDBFDFE3DEBF0E944A000C945A00E1
:100090000C9400008FEF80930104E0E0F4E087838C
:1000A0002FEF31E19AE7215030409040E1F700C056
:0800B0000000F5CFF894FFCF2A
:00000001FF
